:200000000C94AF0D0C94DA0D0C94DA0D0C94DA0D0C94DA0D0C94DA0D0C94DA0D0C94DA0DD3
:200020000C94DA0D0C94DA0D0C94DA0D0C94DA0D0C94DA0D0C9429750C94DA0D0C94DA0DD1
:200040000C94DA0D0C94D67D0C9439C60C94DA0D0C9427260C94DA0D0C94DA0D0C94DA0D7E
:200060000C94DA0D0C94DA0D0C948CC20C94DA0D0C94DA0D0C94DA0D0C94DA0D0C94DA0DE1
:200080000C94DA0D0C94DA0D0C94DA0D084AD73B3BCE016E84BCBFFDC12F3D6C74319ABD5E
:2000A00056833DDA3D00C77F11BED9E4BB4C3E916BAAAABE000000803F05A84CCDB2D44E95
:2000C000B93836A9020C50B9918688083CA6AAAA2ABE000000803F4D383420582059205A91
:2000E0002045006563686F3A0043616E6E6F7420656E746572207375626469723A20004DD1
:200100003234004D3233202573006175746F25692E67004572726F723A006572726F7220A5
:2001200077726974696E6720746F2066696C65004E6F74205344207072696E74696E670085
:200140002F005344207072696E74696E67206279746520002E0044656C6574696F6E206672
:2001600061696C65642C2046696C653A200046696C652064656C657465643A002E006F709C
:20018000656E206661696C65642C2046696C653A200057726974696E6720746F2066696C9F
:2001A000653A20002E006F70656E206661696C65642C2046696C653A20002E006F70656E15
:2001C000206661696C65642C2046696C653A200046696C652073656C656374656400205318
:2001E000697A653A200046696C65206F70656E65643A20002E006F70656E206661696C65E7
:20020000642C2046696C653A20004E6F772066726573682066696C653A20004E6F77206416
:200220006F696E672066696C653A20002220706F73002220706172656E743A220053554251
:20024000524F5554494E452043414C4C207461726765743A2200747279696E6720746F2079
:2002600063616C6C207375622D67636F64652066696C6573207769746820746F6F206D61DA
:200280006E79206C6576656C732E204D4158206C6576656C2069733A0053442063617264D9
:2002A000206F6B006F70656E526F6F74206661696C656400766F6C756D652E696E697420CF
:2002C0006661696C656400534420696E6974206661696C006563686F3A0048617264636F68
:2002E0006465642044656661756C742053657474696E6773204C6F6164656400204400208E
:2003000049002020204D3330312050005049442073657474696E67733A00205A0020590048
:2003200020214D323036205800486F6D65206F666673657420286D6D293A00204500205A8B
:200340000020580020420020540020204D323035205300416476616E6365642076617269D0
:2003600061626C65733A20533D4D696E20666565647261746520286D6D2F73292C20543D3E
:200380004D696E2074726176656C20666565647261746520286D6D2F73292C20423D6D699D
:2003A0006E696D756D207365676D656E742074696D6520286D73292C20583D6D6178696DE7
:2003C000756D205859206A65726B20286D6D2F73292C20205A3D6D6178696D756D205A2016
:2003E0006A65726B20286D6D2F73292C2020453D6D6178696D756D2045206A65726B2028FF
:200400006D6D2F73290020540020204D323034205300416363656C65726174696F6E3A2009
:20042000533D616363656C65726174696F6E2C20543D7265747261637420616363656C65F3
:20044000726174696F6E00204500205A0020590020204D3230312058004D6178696D756D41
:2004600020416363656C65726174696F6E20286D6D2F7332293A00204500205A00205900E1
:2004800020204D3230332058004D6178696D756D2066656564726174657320286D6D2F734D
:2004A000293A00204500205A0020590020204D393220580053746570732070657220756E98
:2004C00069743A006563686F3A004572726F723A0053544F505045442E20005072696E746E
:2004E00065722073746F707065642064756520746F206572726F72732E2046697820746877
:2005000065206572726F7220616E6420757365204D39393920746F20726573746172742EFE
:20052000202854656D70657261747572652069732072657365742E205365742069742061AE
:20054000667465722072657374617274696E6729004B494C4C45442E20005072696E7465E9
:20056000722068616C7465642E206B696C6C28292063616C6C656421006F6B00526573651D
:200580006E643A20002200556E6B6E6F776E20636F6D6D616E643A2022004368616E67655C
:2005A0002066696C616D656E74005A204F6666736574203A20007A5F6D61783A20007A5F1E
:2005C0006D696E3A20005A204F6666736574005A204F6666736574206F6B007A5F6D696EA4
:2005E0003A2000795F6D696E3A2000785F6D696E3A2000205A3A0020593A0020436F756E9A
:200600007420583A200020453A00205A3A0020593A00583A004649524D574152455F4E41B1
:200620004D453A4D61726C696E2056313B20537072696E7465722F6772626C206D61736893
:20064000757020666F722067656E36204649524D574152455F55524C3A68747470733A2F19
:200660002F6769746875622E636F6D2F4572696B5A616C6D2F4D61726C696E2F2050524F3B
:20068000544F434F4C5F56455253494F4E3A312E30204D414348494E455F545950453A4952
:2006A000332050726F2042202045585452554445525F434F554E543A3120555549443A308D
:2006C000303030303030302D303030302D303030302D303030302D30303030303030303026
:2006E0003030300A0049332050726F204220204F66662E0042656420646F6E652E00204247
:200700003A0020453A00543A004265642048656174696E672E0048656174696E6720646FA6
:200720006E652E0020573A0020453A00543A0048656174696E672E2E2E002042403A002094
:20074000403A00202F003A00205400202F0020423A00202F006F6B20543A002569206D69DC
:200760006E2C2025692073656300456E642066696C65206C69737400426567696E2066694F
:200780006C65206C697374004E6F206D6F76652E00526573756D696E67207072696E740053
:2007A0005761697420666F7220757365722E2E2E00536C6565702E2E2E00FFFFFF00005202
:2007C0004300005243000034430000A0400000A040000000400000000000000000000000CA
:2007E00000000000000000000000000000000052430000524300003443256920686F7572EC
:2008000073202569206D696E7574657300446F6E65207072696E74696E672066696C6500C1
:2008200053544F505045442E20005072696E7465722073746F707065642064756520746FE7
:20084000206572726F72732E2046697820746865206572726F7220616E6420757365204D8E
:2008600039393920746F20726573746172742E202854656D70657261747572652069732085
:2008800072657365742E205365742069742061667465722072657374617274696E67290000
:2008A0006F6B004E6F204C696E65204E756D626572207769746820636865636B73756D2CF5
:2008C000204C617374204C696E653A20004E6F20436865636B73756D2077697468206C6981
:2008E0006E65206E756D6265722C204C617374204C696E653A2000636865636B73756D2027
:200900006D69736D617463682C204C617374204C696E653A20004C696E65204E756D626500
:2009200072206973206E6F74204C617374204C696E65204E756D6265722B312C204C61732B
:2009400074204C696E653A20004D31313000446F6E6520736176696E672066696C652E0026
:200960006F6B004D3239002020506C616E6E657242756666657242797465733A20002046B4
:20098000726565204D656D6F72793A20004D6179203130203230313800436F6D70696C65CC
:2009A000643A2000284A6F686E2C2064656661756C7420636F6E6669672900207C20417560
:2009C00074686F723A20004D617920313020323031382031363A30343A313200204C61736B
:2009E0007420557064617465643A2000312E302E30004D61726C696E0020536F667477615E
:200A0000726520526573657400205761746368646F67205265736574002042726F776E2020
:200A20006F7574205265736574002045787465726E616C20526573657400506F7765725553
:200A400070007374617274002200656E717565696E672022002200656E717565696E67209A
:200A600022006563686F3A0020746F6F206C6F6E6720657874727573696F6E20707265764B
:200A8000656E7465640020636F6C6420657874727573696F6E2070726576656E7465640086
:200AA0007C3C3E5E2B3D3F2F5B5D3B2C2A225C0045303A20005A3A2000593A2000583A205D
:200AC000004D53312C4D53322050696E730A0024F404D9201BC40C5C0E9804C4095F0265EA
:200AE000077101F405F900FB04B30048048700C10369005803550003034500BE023A008460
:200B000002310053022A002902250004022000E4011C00C8011900AF0117009801140084D2
:200B2000011300710110006101100051010E0043010D0036010B002B010B0020010B001542
:200B40000109000C01090003010800FB000800F3000800EB000700E4000600DE000600D8D3
:200B6000000600D2000600CC000500C7000500C2000500BD000400B9000400B5000400B14B
:200B8000000400AD000400A9000400A5000300A20003009F0004009B000300980003009535
:200BA00000020093000300900003008D0002008B00030088000200860002008400030081D3
:200BC0000002007F0002007D0002007B000200790002007700010076000200740002007243
:200BE000000100710002006F0002006D0001006C0002006A00010069000200670001006690
:200C000000010065000100640002006200010061000100600001005F0002005D0001005CC6
:200C20000001005B0001005A000100590001005800010057000100560001005500010054F0
:200C400000010053000000530001005200010051000100500001004F0001004E0000004E0A
:200C60000001004D0001004C0001004B0000004B0001004A0001004900010048000000481C
:200C8000000100470001004600000046000100450000004500010044000100430000004328
:200CA00000010042000000420001004100000041000100400001003F0000003F0001003E2D
:200CC0000000003E0001003D0000003D0001003C0000003C0000003C0001003B0000003B2F
:200CE0000001003A0000003A0001003900000039000100380000003800000038000100372B
:200D0000000000370001003600000036000000360001003500000035000000350001003424
:200D200000000034000000340001003300000033000000330001003200000032000000321A
:200D40000001003100000031000000310001003000000030000000300001002F0000002F0F
:200D60000000002F0000002F0001002E0000002E0000002E0001002D0000002D0000002D02
:200D80000000002D0001002C0000002C0000002C0000002C0001002B0000002B0000002BF3
:200DA0000000002B0001002A0000002A0000002A0000002A000100290000002900000029E3
:200DC0000000002900000029000100280000002800000028000000280000002800010027D0
:200DE0000000002700000027000000270000002700010026000000260000002600000026BE
:200E00000000002600010025000000250000002500000025000000250000002500010024A8
:200E2000000000240000002400000024000000240001002300000023000000230000002395
:200E400000000023000000230000002300010022000000220000002200000022000000227E
:200E6000000000220001002100000021000000210000002100000021000000210000002168
:200E8000000100200000002000000020000000200000002000000020000000200000002051
:200EA0000001001F0000001F0000001F0000001F0000001F0000001F0000001F0001001E39
:200EC0000000001E0000001E0000001E00000024F4D43050C38E20C2A24017828B70111280
:200EE0007A910D816CD90AA861E108C7586607615143061E4B5D05C145A7041A411104099C
:200F00003D9803713931034036DB0265339102D4305402802E1D02632CEE01752AC501B0E3
:200F200028A001102781018F2564012B244B01E0223401AC211F018D200D01801FFC00847D
:200F40001EED00971DDF00B81CD200E61BC600201BBC00641AB200B219A8000A19A0006ABF
:200F6000189900D117910040178B00B516840031167E00B31579003A157300C7146F0058AC
:200F8000146A00EE1366008813630025135E00C7125B006C12570015125400C111510070C1
:200FA000114F0021114B00D61049008D1047004610440002104200C00F4000800F3E004235
:200FC0000F3C00060F3B00CB0E3800930E37005C0E3500270E3400F30D3200C10D310090C4
:200FE0000D3000600D2E00320D2D00050D2C00D90C2B00AE0C2900850C29005C0C270035FE
:201000000C27000E0C2600E80B2400C40B2400A00B23007D0B23005A0B2100390B210018D7
:201020000B2000F80A1F00D90A1E00BB0A1E009D0A1D00800A1D00630A1C00470A1B002CF4
:201040000A1B00110A1A00F7091A00DD091900C4091900AB091900920917007B09180063B9
:201060000917004C09160036091600200916000A091500F5081500E0081400CC081400B87B
:20108000081400A4081400900813007D0812006B081300580812004608120034081100236A
:2010A0000811001208110001081100F0071000E0071000D0071000C0071000B0070F00A1AF
:2010C00007100091070E0083070F0074070F0065070E0057070E0049070E003B070D002E6F
:2010E000070E0020070D0013070D0006070D00F9060C00ED060D00E0060C00D4060C00C8BB
:20110000060C00BC060C00B0060C00A4060B0099060C008D060B0082060B0077060B006CA8
:20112000060B0061060A0057060B004C060A0042060A0038060A002E060A0024060A001A43
:20114000060A001006090007060A00FD050900F4050900EB050900E2050900D9050900D09C
:20116000050900C7050900BE050900B5050800AD050800A50509009C050800940508008CBB
:20118000050800840508007C050800740508006C050700650508005D050700560508004EA3
:2011A000050700470507004005080038050700310507002A050700230507001C0506001660
:2011C0000507000F0507000805060002050700FB040600F5040700EE040600E8040600E2F6
:2011E000040700DB040600D5040600CF040600C9040600C3040600BD040600B7040600B16E
:20120000040500AC040600A6040600A00405009B04060095040500900406008A04050085C1
:20122000040500800406007A04050075040500700405006B04050066040500610405005CF8
:2012400004050057040500520405004D04050048040500430405003E0404003A0405003519
:20126000040500300404002C04050027040400230405001E0404001A040400160405001125
:201280000404000D040400090405000404040000040400FC030400F8030400F4030400F01E
:2012A000030400EC030400E8030400E4030400E0030400DC030400D8030400D4030400D006
:2012C000030400CC030400C8030300C50303006563686F3A00656E6473746F707320686961
:2012E000743A205A00205A3A00656E6473746F7073206869743A20590020593A00656E64A0
:2013000073746F7073206869743A20580020583A00656E6473746F7073206869743A20009C
:201320004572726F723A004572723A204D415854454D50204245440054656D70657261749D
:201340007572652068656174656420626564207377697463686564206F66662E204D415861
:2013600054454D5020747269676765726564202121004572723A204D494E54454D50003A21
:20138000204578747275646572207377697463686564206F66662E204D494E54454D50207C
:2013A0007472696767657265642021004572723A204D415854454D50003A2045787472751E
:2013C000646572207377697463686564206F66662E204D415854454D5020747269676765F0
:2013E000726564202100202D20496E76616C6964206578747275646572206E756D62657201
:2014000020210070012C0190012701B0012201C0011D01F00118011002130130020E0160B0
:2014200002090190020401C002FF000003FA004003F5008003F000D003EB002004E6007068
:2014400004E100E004DC004005D700C005D2004006CD00D006C8008007C3003008BE00F053
:2014600008B900C009B400B00AAF00B00BAA00D00CA500000EA000500F9B00C01096005081
:2014800012910000148C00C0158700B0178200B0197D00D01B7800001E730040206E0090CC
:2014A000226900F024640040275F0090295A00E02B5500102E500020304B0010324600E05F
:2014C00033410090353C001037370070383200A0392D00B03A2800A03B2300603C1E00105F
:2014E0003D1900903D1400103E0F00703E0A00C03E0500003F0000504944204175746F7454
:20150000756E652066696E6973686564212050757420746865206C617374204B702C204BF8
:201520006920616E64204B6420636F6E7374616E74732066726F6D2061626F766520696E2B
:20154000746F20436F6E66696775726174696F6E2E6800504944204175746F74756E652028
:201560006661696C6564212074696D656F75740020403A006F6B20543A006F6B20423A0026
:20158000504944204175746F74756E65206661696C6564212054656D7065726174757265A5
:2015A00020746F6F206869676800204B643A2000204B693A2000204B703A200020436C613D
:2015C000737369632050494420002054753A2000204B753A2000206D61783A2000206D6909
:2015E0006E3A200020643A200020626961733A20002D2D3A2D2D002D2D2D005344002059A7
:20160000000120000120004E6F2053442063617264005072696E742066726F6D20534400C2
:2016200053746F70207072696E7400526573756D65207072696E74005061757365207072F9
:20164000696E7400436F6E74726F6C00507265706172650054756E6500496E666F20736371
:201660007265656E00052E2E004D61696E004D3234004D3233202573004D38342058205913
:20168000205A204500526573746F7265206661696C73616665004D6F74696F6E0054656D90
:2016A0007065726174757265004D61696E004573746570732F6D6D004573746570732F6DB0
:2016C0006D005A73746570732F6D6D005A73746570732F6D6D005973746570732F6D6D00E8
:2016E0005973746570732F6D6D005873746570732F6D6D005873746570732F6D6D00412DCB
:201700007265747261637400412D7265747261637400416D6178206500416D617820650059
:20172000416D6178207A00416D6178207A00416D6178207900416D6178207900416D6178A0
:20174000207800416D61782078005654726176206D696E005654726176206D696E00566D61
:20176000696E00566D696E00566D6178206500566D6178206500566D6178207A00566D615C
:2017800078207A00566D6178207900566D6178207900566D6178207800566D617820780065
:2017A00056652D6A65726B0056652D6A65726B00567A2D6A65726B00567A2D6A65726B00AF
:2017C0005678792D6A65726B005678792D6A65726B00416363656C00416363656C00436F67
:2017E0006E74726F6C00507265686561742041425320636F6E6600507265686561742050FC
:201800004C4120636F6E66005049442D43005049442D43005049442D44005049442D44003F
:201820005049442D49005049442D49005049442D50005049442D500020022046616374008E
:2018400020022046616374002002204D6178002002204D6178002002204D696E0020022050
:201860004D696E004F6666004F6E20004F6666004F6E20004175746F74656D700046616EF0
:201880002073706565640046616E2073706565640042656400426564004E6F7A7A6C650039
:2018A0004E6F7A7A6C6500436F6E74726F6C0042656400426564004E6F7A7A6C65004E6F70
:2018C0007A7A6C650046616E2073706565640046616E2073706565640054656D70657261E9
:2018E000747572650042656400426564004E6F7A7A6C65004E6F7A7A6C650046616E207366
:20190000706565640046616E2073706565640054656D7065726174757265004D6F7665209E
:201920006178697300436F6F6C646F776E0050726568656174204142530050726568656199
:201940007420504C4100473238004175746F20686F6D65004D38340044697361626C652076
:201960007374657070657273004D61696E004D6F766520302E316D6D004D6F766520316DF7
:201980006D004D6F76652031306D6D0050726570617265004578747275646572004D6F7694
:2019A00065205A004D6F76652059004D6F76652058004D6F7665206178697300457874721A
:2019C00075646572005A00590058005072656865617420414253204265640050726568656E
:2019E00061742041425320310050726570617265005072656865617420504C41204265640B
:201A0000005072656865617420504C4120310050726570617265004D363030004368616E83
:201A200067652066696C616D656E7400466C6F77203000466C6F77203000466C6F770046BC
:201A40006C6F770046616E2073706565640046616E20737065656400426564004265640092
:201A60004E6F7A7A6C65004E6F7A7A6C65005370656564005370656564004D61696E0043B8
:201A80006172642072656D6F766564004361726420696E73657274656400000021002400C0
:201AA00027002A0000002200250028002B0000002000230026002900020202020202020299
:201AC0000404040404040404030303030303030301010101010101010102040810204080C7
:201AE0000102040810204080010204081020408080402010080402010000000102000000E6
:201B0000000000000403070600000000000000000000000000000000494E46494E49545947
:201B20004E414ECDCCCC3D0AD7233C17B7D13877CC2B329595E6241FB14F0A0000204100B1
:201B400000C84200401C4620BCBE4CCA1B0E5AAEC59D7400BB267A2931BAF9C17329112428
:201B60001FBECFEFD0E4DEBFCDBF13E0A0E0B1E0E8ECFCE901E00BBF02C007900D92A83AAB
:201B8000B107D9F71BBE11E1A8EAB3E001C01D92AC3FB107E1F71BE1CCE5DBE104C02297FC
:201BA000FE010E9409CEC435D107C9F70E9498C80C9457CE0C940000A0E0B0E0E2EEFDE0F8
:201BC0000C9426CEEC015B016115710519F0FB0191838083F9908F2D90E00E940DCE892B3A
:201BE000C9F7FDE2FF1621F4F990EE24E39405C02BE2F21609F4F990EE248E010150104068
:201C0000C80168E17BE143E050E00E947B10892B01F58E010E5F1F4FC8016BE17BE145E02C
:201C200050E00E947B10892B19F48E01095F1F4FA114B10419F0F50111830083E0FC04C001
:201C400070E090E080E814C070E090E080E86FEF08C1C80160E27BE143E050E00E947B1052
:201C6000892B69F4A114B10429F470E090E080EC6FE7F7C02296F501D183C083F6CF8824DD
:201C8000992440E050E060E070E0EF2DE053EA30A0F5F2E0EF2A8E2D90E09C0128703070BE
:201CA000E2FE06C0232B79F50894811C911C2BC0232B19F0089481089108DB01CA0112E043
:201CC000880F991FAA1FBB1F1A95D1F7480F591F6A1F7B1F440F551F661F771F4E0F511DFC
:201CE000611D711D483929E9520729E9620729E1720748F084E0E82A06C0EE3F31F4E3FC49
:201D000039C098E0E92AF990C0CFE53311F0E53189F529912D3219F4E0E1EE2A05C02B3259
:201D200019F081E090E003C0299182E090E0E22FE053EA3018F0C81BD90B1CC020E030E061
:201D4000FCE020383F075CF4C901880F991F880F991F280F391F220F331F2E0F311DE9913A
:201D6000E053EA3068F3E4FE03C0309521953F4F820E931ECE2CDD24E1FE07C0A114B104C1
:201D800021F02197F501D183C083CB01BA010E9472CA7B018C01F3E0CF22DD2423E0C216DF
:201DA000D10421F417FB109517F9109557016801C801B70120E030E040E050E00E94D2C9EE
:201DC000882309F44AC097FE0DC027E3E22E2BE1F22E9094819491089394C0E2D0E000E07E
:201DE00010E012C09FE4E92E9BE1F92EF6CFF7012591359145915491C601B5010E94B2CC53
:201E00005B016C018C1A9D0A8C169D0684F7D595C7950F5F1F4F0630110529F08CEF9FEFDC
:201E2000E80EF91EF1CFC501D6017C018D018C2D880F8D2D881F8F3F51F0C601B50120E0F0
:201E400030E040E050E00E94D2C9882331F482E290E09093FB118093FA117E2D9F2D802FCE
:201E6000612F272F392F482F562FB901CA01CDB7DEB7ECE00C9442CE2F923F925F926F927A
:201E80007F928F929F92AF92BF92CF92DF92EF92FF920F931F93CF93DF938C011B01EA01AD
:201EA0006115710519F0FB0191838083209749F0CE010297839728F020E030E040E050E030
:201EC000F6C0F801A1908F018A2D90E00E940DCE892BB9F7FDE2AF1631F4F801A1908F0107
:201EE0005524539407C0FBE2AF1619F4F801A1908F015524209719F0C031D105C1F4F0E3CA
:201F0000AF1679F4F8018081883711F0883549F4F801A1800E5F1F4FF2E05F2AC0E1D0E03A
:201F200006C0209721F480E3A816E9F427C0C830D10531F1C930D10524F4C230D10531F565
:201F40000CC0CA30D10589F0C031D105F9F4C12CD12CE12CB8E0FB2E28C0C12CD12CE12C21
:201F6000A0E4FA2E22C0CAE0D0E0FCECCF2EFCECDF2EFCECEF2EFCE0FF2E17C0C8E0D0E062
:201F8000C12CD12CE12CE0E1FE2E0FC09E01442737FD4095542F60E070E080E090E80E94EE
:201FA000CACDC901DA016C017D0120E030E040E050E060E03E01882477FC8094982C70EDC7
:201FC000B72EBA0CE9E0EB1570F48A2D81548A3118F499ECB92E06C08A2D81568A3150F516
:201FE00089EAB82EBA0C8B2D90E08C179D0714F56F3FE1F0C216D306E406F506B0F0CA01CA
:20200000B901A40193010E9484CD9B01AC012B0D311D411D511D2130F0E03F07F0E04F07B2
:20202000F0E85F0710F461E001C06FEFF801A1908F01C5CF2114310481F0662331F00150DA
:202040001040F1011183008308C051FE1AC002501040F1011183008314C067FF12C050FC33
:2020600005C02FEF3FEF4FEF5FE704C020E030E040E050E882E290E09093FB118093FA117E
:2020800016C050FE08C050954095309521953F4F4F4F5F4F0CC057FF0AC082E290E0909362
:2020A000FB118093FA112FEF3FEF4FEF5FE7B901CA01DF91CF911F910F91FF90EF90DF9004
:2020C000CF90BF90AF909F908F907F906F905F903F902F900895FB01DC0105900D92002070
:2020E000E1F70895FC0105900020E9F7809590958E0F9F1F0895FB01DC014150504088F035
:202100008D9181341CF08B350CF4805E659161341CF06B350CF4605E861B611171F3990B32
:202120000895881BFCCFFB01DC014150504048F005900D920020C9F701C01D9241505040BD
:20214000E0F70895FB0155915523A9F0BF01DC014D9145174111E1F759F4CD010590002047
:2021600049F04D9140154111C9F3FB014111EFCF81E090E001970895FB01DC0104C08D9118
:202180000190801921F441505040C8F7881B990B0895FB01DC0102C001900D924150504050
:2021A000D8F70895FB01DC010D900020E9F7119701900D920020E1F70895FC018191861724
:2021C00021F08823D9F7992708953197CF010895FB01DC018D91019080190110D9F3990B3F
:2021E0000895FB01DC0101900D920020E1F70895FB01DC014150504030F08D910190801942
:2022000019F40020B9F7881B990B0895FB01DC014150504048F001900D920020C9F701C0FA
:202220001D9241505040E0F70895AEE0B0E0EBE1F1E10C942ECE0D891E898EE08C831A83AB
:2022400009838FEF9FE79E838D839E01275E3F4FCE0101966F89788DA9010E9439112F8162
:202260003885020F131FF80110822E96E4E00C944ACEABE0B0E0EFE3F1E10C9420CE3C0109
:202280002B015A01FC0117821682838181FD03C06FEF7FEFC6C19AE0892E1E010894211CC8
:2022A000311CF3012381F20123FD859123FF81912F01882309F4B2C1853239F423FD859177
:2022C00023FF81912F01853229F490E0B3010E942C13E7CF982FFF24EE249924FFE1FF155E
:2022E000D0F09B3269F09C3228F4903259F0933291F40EC09D3249F0903369F441E024C0BE
:2023000052E0F52A84E0F82A28C098E0F92A25C0E0E1FE2A22C0F7FC29C0892F80538A3092
:2023200070F4F6FE05C0989C902C1124980E15C0E89CE02C1124E80EF0E2FF2A0EC09E328C
:2023400029F4F6FC6BC140E4F42A07C09C3619F450E8F52A02C0983649F4F20123FD9591FD
:2023600023FF91912F01992309F0B8CF892F8554833018F08052833038F444E050E0A40EAA
:20238000B51E5FE359830FC0933631F0933779F0933509F056C020C0F5018081898342E084
:2023A00050E0A40EB51E610101E010E012C0F501C080D180F6FC03C06FEF7FEF02C0692D03
:2023C00070E042E050E0A40EB51EC6010E9421138C015FE7F52214C0F501C080D180F6FC02
:2023E00003C06FEF7FEF02C0692D70E042E050E0A40EB51EC6010E9416138C0150E8F52A59
:20240000F3FE07C01AC080E290E0B3010E942C13EA948E2D90E008171907A8F30EC0F6017B
:20242000F7FC8591F7FE81916F0190E0B3010E942C13E110EA94015010400115110579F76B
:20244000EAC0943611F0993669F5F7FE08C0F501208131814281538184E090E00AC0F501A9
:20246000808191819C01442737FD4095542F82E090E0A80EB91E9FE6F92257FF09C05095B2
:202480004095309521953F4F4F4F5F4FE0E8FE2ACA01B901A1012AE030E00E945813D82ECE
:2024A000D21840C0953729F41F2D1F7E2AE030E01DC01F2D197F9F3661F0903720F49835B7
:2024C00009F0ACC00FC0903739F0983709F0A6C004C028E030E00AC0106114FD146020E10D
:2024E00030E004C014FD166020E132E017FF08C0F501608171818281938144E050E008C094
:20250000F50180819181BC0180E090E042E050E0A40EB51EA1010E945813D82ED2188FE739
:20252000F82EF122F6FE0BC05EEFF522D91438F4F4FE07C0F2FC05C08FEEF82202C01D2D17
:2025400001C0192DF4FE0DC0FE01ED0DF11D8081803319F499EEF92208C01F5FF2FE05C050
:2025600003C08F2D867809F01F5F0F2DF3FC14C0F0FE0FC01E1510F09D2C0BC09D2C9E0C71
:20258000911A1E2D06C080E290E0B3010E942C131F5F1E15C0F304C01E1510F4E11A01C0FD
:2025A000EE2404FF0FC080E390E0B3010E942C1302FF1DC001FD03C088E790E00EC088E516
:2025C00090E00BC0802F867891F001FF02C08BE201C080E2F7FC8DE290E0B3010E942C13D9
:2025E00006C080E390E0B3010E942C139A94D914C0F3DA94F101ED0DF11D808190E0B30152
:202600000E942C13DD20A9F706C080E290E0B3010E942C13EA94EE20C1F743CEF3016681DF
:202620007781CB012B96E2E10C943CCEFC010590615070400110D8F7809590958E0F9F1F40
:202640000895FC016150704001900110D8F7809590958E0F9F1F08950F931F93CF93DF93B4
:202660008C01EB018B8181FF1BC082FF0DC02E813F818C819D812817390764F4E881F981D8
:202680000193F983E88306C0E885F985802F0995892B31F48E819F8101969F838E8302C02D
:2026A0000FEF1FEFC801DF91CF911F910F910895FA01AA27283051F1203181F1E8946F93E1
:2026C0006E7F6E5F7F4F8F4F9F4FAF4FB1E03ED0B4E03CD0670F781F891F9A1FA11D680FC6
:2026E000791F8A1F911DA11D6A0F711D811D911DA11D20D009F468943F912AE0269F11245F
:202700003019305D3193DEF6CF010895462F4770405D4193B3E00FD0C9F7F6CF462F4F7016
:20272000405D4A3318F0495D31FD4052419302D0A9F7EACFB4E0A6959795879577956795F3
:20274000BA95C9F700976105710508959B01AC010A2E06945795479537952795BA95C9F7E0
:20276000620F731F841F951FA01D0895FC01128213820895FC018381882311F081E08283CF
:202780000895FC018281811112820895CF93DF93DC01FC01EB55FE4F808191810097C9F13A
:2027A000019791838083ED01CC5ADF4FFD01ED58FF4F8BE1019009928150E1F7FD01EE5A10
:2027C000FF4FAF58BF4F8D919C911197A157B04091838083FD01ED58FF4F20E030E0AD0155
:2027E0004B555E4F10C02F5F3F4FEF01DF015F968BE10D9009928150E1F7858D968D329790
:2028000091838083B196DA018D919C912817390750F3DF91CF910895FC0183E493E091831A
:2028200080838781882321F0CF0104960E944A670895CF92DF92EF92FF920F931F93DF93CD
:20284000CF93CDB7DEB76F970FB6F894DEBF0FBECDBF8C016B01095A1F4FD8018C91075594
:202860001040882321F42FE2E22EF12C03C090E5E92EF12CE00EF11E83E493E09A8389839E
:202880001C821B8218861D82B7016C5F7F4FCE010596A60121E00E94586E882391F5E3EEF3
:2028A000F0E0949108C08091C00085FFFCCF9093C600319694919923B1F7E9EEF0E0949136
:2028C00008C08091C00085FFFCCF9093C600319694919923B1F709C08091C00085FFFCCFEE
:2028E0000894C11CD11C9093C600F6019081992399F78091C00085FFFCCF8AE08093C600D2
:202900005AC0F801EB55FE4F208131812A30310508F040C02F5F3F4F3183208321503040E8
:20292000F90185E0EE0FFF1F8A95E1F7E21BF30BED58FF4FE00FF11F13C0AF01415E5F4FC9
:20294000BF018BE1DB010D90BD01DA010D92AD018150C1F7929182913296968F858F7F9716
:2029600021503040BFEF2E3F3B0739F7D801AD58BF4FF70134968BE101900D928150E1F7F6
:202980000F581F4FF70182819381D8018D939C9301571040D801AC5ABF4FFE0135968BE160
:2029A00001900D928150E1F70E5A1F4F8B819C81F80191838083CE0101960E940C146F9602
:2029C0000FB6F894DEBF0FBECDBFCF91DF911F910F91FF90EF90DF90CF900895EF92FF9205
:2029E0000F931F938C013EECE32E31E0F32EE80EF91EC7010E94FC66C7010E944A67F8019C
:202A0000108211821F910F91FF90EF900895CF92DF92EF92FF920F931F93CF93DF937C010D
:202A20006B01DB010D900020E9F78D0101501040061B170BEEECF1E0EE0EFF1ED7011C92F5
:202A4000E2E3FEEFEE0EFF1ECB016EE470E00E94DD10EC01009731F4F8013197EC0DFD1D31
:202A600086010EC060E270E00E94DD108C010F5F1F4FCE016AE270E00E94DD10FC013197B8
:202A80008DE081838AE082831382C70186539E4FB8010E945A6F8EEC91E0E80EF91ED7013F
:202AA0008C91882319F1E3E1F1E0949108C08091C00085FFFCCF9093C60031969491992311
:202AC000B1F7EAE1F1E0949108C08091C00085FFFCCF9093C600319694919923B1F780915B
:202AE000C00085FFFCCF8AE08093C600DF91CF911F910F91FF90EF90DF90CF900895CF9389
:202B0000DF93EC018B81882309F43BC0E2E4F1E0949108C08091C00085FFFCCF9093C6001A
:202B2000319694919923B1F7CD57DD4F488159816A817B81C358D2408CE294E02AE030E042
:202B40000E945627E0E4F1E0949108C08091C00085FFFCCF9093C600319694919923B1F77B
:202B6000C558DD4F488159816A817B818CE294E02AE030E00E9456278091C00085FFFCCF47
:202B800012C0E0E3F1E0949108C08091C00085FFFCCF9093C600319694919923B1F7809178
:202BA000C00085FFFCCF8AE08093C600DF91CF9108952F923F924F925F926F927F928F92BF
:202BC0009F92AF92BF92CF92DF92EF92FF920F931F93DF93CF93CDB7DEB7AC970FB6F89479
:202BE000DEBF0FBECDBF5C014B01FC018381882309F43FC1C50182539E4F0E944A67F501BC
:202C000012821A8A1D8A198A188A83E493E09F878E875EE4C52ED12CCA0CDB1C2FE230E05B
:202C2000A20EB31EF601B182A08221ED3FEFA20EB31EF40180818F3209F090C0C4016FE2F4
:202C400070E00E94DD107C010894E11CF11C3E010894611C711C260142E1242E312C2C0E5A
:202C60003D1E77C0C7016FE270E00E94DD106C01009709F481C0E816F90608F07DC08C01C9
:202C80000E191F09C301B701A8010E940611060D171DF8011082F30107C08091C00085FF25
:202CA000FCCF31969093C60090819923B1F78091C00085FFFCCFFAE0F093C600F20160810D
:202CC00071816115710519F460E070E002C06C5F7F4FC101A30121E00E94586E882371F53E
:202CE000EEE7F1E0949108C08091C00085FFFCCF9093C600319694919923B1F7FE01319622
:202D000007C08091C00085FFFCCF31969093C60090819923B1F7ECE7F1E0949108C0809105
:202D2000C00085FFFCCF9093C600319694919923B1F78091C00085FFFCCF94C02EE030E0B9
:202D40002C0F3D1FF2013183208376010894E11CF11CE114F10409F085CF0BC080E590E09E
:202D6000A80EB91EF601B182A08220EB3FEFA20EB31ED82C092D02C0DE2C0F2D8EE490E09C
:202D8000A80EB91EF5018081918122EB3FEFA20EB31E009719F480E090E001C004966D2D78
:202DA000702F0E942A6F882371F1EEE6F1E0949108C08091C00085FFFCCF9093C6003196CA
:202DC00094919923B1F78D2D902F9C01F90107C08091C00085FFFCCF31969093C6009081B2
:202DE0009923B1F78091C00085FFFCCF8AE08093C60083E892E0A80EB91EF5011082118287
:202E00001282138232C0E6E5F1E0949108C08091C00085FFFCCF9093C6003196949199235D
:202E2000B1F78D2D902F9C01F90107C08091C00085FFFCCF31969093C60090819923B1F7CE
:202E4000E4E5F1E0949108C08091C00085FFFCCF9093C600319694919923B1F78091C000C1
:202E600085FFFCCF8AE08093C600CE010E960E940C14AC960FB6F894DEBF0FBECDBFCF91A2
:202E8000DF911F910F91FF90EF90DF90CF90BF90AF909F908F907F906F905F904F903F900F
:202EA0002F900895BF92CF92DF92EF92FF920F931F93CF93DF938C01EB018FE28993EE2441
:202EC000E394FF2475EAC72E71E0D72EC00ED11E6FE1B62E14C0FB9CC00111248D589F4F89
:202EE000800F911FBE010E945C6702C02196E3948881882319F08CE88E15C0F7F3942F2D11
:202F000030E0F601808191812817390720F3E7FC07C0C80182539E4FBE010E945C6701C0EB
:202F20001882DF91CF911F910F91FF90EF90DF90CF90BF9008952F923F924F925F926F92AA
:202F40007F928F929F92AF92BF92CF92DF92EF92FF920F931F93DF93CF93CDB7DEB7AD9713
:202F60000FB6F894DEBF0FBECDBF6C014B014DA7DC0113968C91882309F44AC3E1EDF1E066
:202F8000CE0EDF1ED6018C91EFE2FEEFCE0EDF1E882309F419C1222309F0E1C029EE31E044
:202FA000C20ED31ED6018C91E7E1FEEFCE0EDF1E882371F1E3E1F1E0949108C08091C0006E
:202FC00085FFFCCF9093C600319694919923B1F7E6E5F2E0949108C08091C00085FFFCCFBF
:202FE0009093C600319694919923B1F78CE294E061E070E04AE050E00E94AA278091C00087
:2030000085FFFCCF8AE08093C6000E94C32900C3E3EEF0E0949108C08091C00085FFFCCF1F
:203020009093C600319694919923B1F7EDE3F2E0949108C08091C00085FFFCCF9093C600BF
:20304000319694919923B1F7F40107C08091C00085FFFCCF31969093C60090819923B1F71F
:20306000E2E3F2E0949108C08091C00085FFFCCF9093C600319694919923B1F7C6012EEE90
:2030800031E0C20ED31EB6010E9452174BEF5FEFC40ED51ED6019C91E7E1FEEFCE0EDF1EBD
:2030A0008DE8989FF0011124E251FE4FEC0DFD1D07C08091C00085FFFCCF31969093C60014
:2030C00090819923B1F7ECE2F2E0949108C08091C00085FFFCCF9093C6003196949199233D
:2030E000B1F723E832E0C20ED31ED6014D915D916D917C91EDE7FDEFCE0EDF1E8CE294E021
:203100002AE030E00E9456278091C00085FFFCCF8AE08093C600A60147515E4FDA012C918F
:20312000E22FF0E0EE0FFF1FEE0FFF1FEC0DFD1DE651FE4F83E892E0C80ED91ED6014D9083
:203140005D906D907C908DE79DEFC80ED91E40825182628273822F5FDA012C932FC0E3EE56
:20316000F0E0949108C08091C00085FFFCCF9093C600319694919923B1F7EBE1F2E0949176
:2031800008C08091C00085FFFCCF9093C600319694919923B1F7F40107C08091C00085FFFD
:2031A000FCCF31969093C60090819923B1F78091C00085FFFCCF8AE08093C600C601825320
:2031C0009E4F0E944A6739C0E9EEF1E0CE0EDF1ED6011C92E7E1FEEFCE0EDF1EE3EEF0E081
:2031E000949108C08091C00085FFFCCF9093C600319694919923B1F7EAE0F2E0949108C000
:203200008091C00085FFFCCF9093C600319694919923B1F7F40107C08091C00085FFFCCF79
:2032200031969093C60090819923B1F78091C00085FFFCCF8AE08093C600D60112961C92D9
:203240001A8A1D8A198A188A83E493E09F878E87FEE4AF2EB12CAC0CBD1CEFE2F0E0CE0E1F
:20326000DF1ED501CD92DC92E1EDFFEFCE0EDF1ED4018C918F3209F090C0C4016FE270E0B7
:203280000E94DD107C010894E11CF11C3E010894611C711C2501E2E12E2E312C2C0E3D1E60
:2032A00077C0C7016FE270E00E94DD105C01009709F481C0E816F90608F07DC08C010E19C7
:2032C0001F09C301B701A8010E940611060D171DF8011082F30107C08091C00085FFFCCF3B
:2032E00031969093C60090819923B1F78091C00085FFFCCFFAE0F093C600D2016D917C9188
:203300006115710519F460E070E002C06C5F7F4FC101A30121E00E94586E882371F5E6EF14
:20332000F1E0949108C08091C00085FFFCCF9093C600319694919923B1F7FE01319607C0E9
:203340008091C00085FFFCCF31969093C60090819923B1F7E4EFF1E0949108C08091C000C6
:2033600085FFFCCF9093C600319694919923B1F78091C00085FFFCCF1BC12EE030E02C0F70
:203380003D1FF2013183208375010894E11CF11CE114F10409F085CF0BC040E550E0C40E42
:2033A000D51ED501CD92DC92E0EBFFEFCE0EDF1E082DF92C01C00E2DF601E25BFF4F2DA53B
:2033C000222309F4B1C0608171816115710519F460E070E002C06C5F7F4FC60182539E4FFA
:2033E000402F5F2D21E00E94586E882309F46CC04FED51E0C40ED51ED6014D915D916D91C2
:203400007C91ECE9F0E0CE0EDF1ED6014D935D936D937C931397E5E8FDEFCE0EDF1EE6EE5B
:20342000F1E0949108C08091C00085FFFCCF9093C600319694919923B1F7802F9F2D9C015D
:20344000F90107C08091C00085FFFCCF31969093C60090819923B1F7EEEDF1E0949108C0CD
:203460008091C00085FFFCCF9093C600319694919923B1F78CE294E02AE030E00E945627D8
:203480008091C00085FFFCCF8AE08093C60023E832E0C20ED31ED6011D921D921D921C9259
:2034A0001397E0EDF1E0949108C08091C00085FFFCCF9093C600319694919923B1F780916D
:2034C000C00085FFFCCF99C0ECEBF1E0949108C08091C00085FFFCCF9093C60031969491FA
:2034E0009923B1F7802F9F2D9C01F90107C08091C00085FFFCCF31969093C60090819923F2
:20350000B1F7EAEBF1E0949108C08091C00085FFFCCF9093C600319694919923B1F7809106
:20352000C00085FFFCCF44C0608171816115710519F460E070E002C06C5F7F4FC601825325
:203540009E4F402F5F2D26E50E94586E882309F033C0E6EAF1E0949108C08091C00085FF96
:20356000FCCF9093C600319694919923B1F7802F9F2D9C01F90107C08091C00085FFFCCF4E
:2035800031969093C60090819923B1F7E4EAF1E0949108C08091C00085FFFCCF9093C60071
:2035A000319694919923B1F78091C00085FFFCCF8AE08093C60028C081E0F6018083E2E94A
:2035C000F1E0949108C08091C00085FFFCCF9093C600319694919923B1F7F40107C0809107
:2035E000C00085FFFCCF31969093C60090819923B1F78091C00085FFFCCF8AE08093C60034
:20360000802F9F2D0E94C8BBCE010E960E940C14AD960FB6F894DEBF0FBECDBFCF91DF917B
:203620001F910F91FF90EF90DF90CF90BF90AF909F908F907F906F905F904F903F902F9018
:203640000895EF92FF920F931F93CF93DF93EC010E940E758E0107511E4FD8018C919EECAD
:20366000E92E91E0F92EEC0EFD1E8823A1F1C7010E944A67F8016081615060838DE8689F44
:20368000B001112462517E4F6C0F7D1FCE0141E021E00E949B17D801EC91F0E0EE0FFF1F27
:2036A000EE0FFF1FEC0FFD1FE651FE4F4081518162817381CD57DD4F488359836A837B8308
:2036C000C358D240C7010E9432668B81882389F181E08A832EC00E94EB74C7010E944A6712
:2036E0001A8287ED90E00E94A44B80913909882301F1109239098091F006C82FD0E0CC0F5C
:20370000DD1FC758DF4E68817981882777FD8095982F0E9474CA2091920230919302409133
:203720009402509195020E94E0CB181614F419821882DF91CF911F910F91FF90EF900895F8
:20374000FC0181E08183CF0140E021E00E949B170895EF92FF920F931F93CF93DF938C015E
:20376000FC01138286A9882321F0C801C3960E944A6727EAE22E21E0F22EE00EF11EC70150
:2037800060E04FE10E94F064882309F5E3EEF0E0949108C08091C00085FFFCCF9093C60083
:2037A000319694919923B1F7E7ECF2E0949108C08091C00085FFFCCF9093C6003196949132
:2037C0009923B1F78091C00085FFFCCF7DC0E801C455DE4FCE01B70141E00E94EF6F8823A6
:2037E00041F5CE01B70140E00E94EF6F882309F5E3E1F1E0949108C08091C00085FFFCCFA1
:203800009093C600319694919923B1F7E4EBF2E0949108C08091C00085FFFCCF9093C600D8
:20382000319694919923B1F78091C00085FFFCCF4BC0C801C396BE010E944B6A882309F52C
:20384000E3E1F1E0949108C08091C00085FFFCCF9093C600319694919923B1F7E4EAF2E0ED
:20386000949108C08091C00085FFFCCF9093C600319694919923B1F78091C00085FFFCCFE2
:2038800023C081E0F8018383E3EEF0E0949108C08091C00085FFFCCF9093C6003196949162
:2038A0009923B1F7E9E9F2E0949108C08091C00085FFFCCF9093C600319694919923B1F7BA
:2038C0008091C00085FFFCCF8AE08093C600D801AC5ABF4FF801F3968BE101900D928150A9
:2038E000E1F7F80181A992A90E5A1F4FF8019183808302551040C8018F96025B1F4FF80153
:2039000091838083DF91CF911F910F91FF90EF9008952F923F924F925F926F927F929F921E
:20392000AF92BF92CF92DF92EF92FF920F931F93DF93CF93CDB7DEB7CC55D0400FB6F8944E
:20394000DEBF0FBECDBF6C01662311F527E832E0C20ED31ED6018C91E9E7FDEFCE0EDF1E0A
:20396000882309F4E6C02FE732E0C20ED31ED601ED90FD900D911C91E1E8FDEFCE0EDF1E56
:203980000E9481C6E616F7060807190708F4D1C027E832E0C20ED31ED6011C92E9E7FDEF66
:2039A000CE0EDF1ED60113968C91882341F4C6010E94A91BF6018381882309F4BAC000D097
:2039C00000D000D0EDB7FEB731967E010894E11CF11CADB7BEB71296FC92EE9211978AE061
:2039E00091E093838283D6019D968D919C919E97958384830E9415118701EDB7FEB736961D
:203A00000FB6F894FEBF0FBEEDBF57010AC0D8018C91992787FD90950E9415CEF80181930C
:203A20008F01F50101900020E9F73197EA19FB09802F8E198E175CF363E3A62EB12CAC0CA7
:203A4000BD1CC50140E050E060E070E00E94326699245DE3E52EF12CEC0EFD1E2E010894A0
:203A6000411C511C4FE1642E712C6C0E7D1E33E0232E31E0332E43C0D8018C9190E00E9427
:203A800015CEF80181938F01D7010D900020E9F71197AE19BF09802F8E198A176CF32796E7
:203AA0008FAD27978E3759F1C701B20145E050E00E94F810009719F500D000D000D0EDB7CA
:203AC000FEB73196ADB7BEB712967C926E92119733822282558244820E941511EDB7FEB71C
:203AE00036960FB6F894FEBF0FBEEDBFC3010E941D4C8FEF90E00E94A44B99249394C5017B
:203B0000B70140E050E00E946769181614F48701BBCF992041F48FEF9FEFD6019E969C93AF
:203B20008E939D9706C0F60185A596A5019696A785A7C45ADF4F0FB6F894DEBF0FBECDBF7B
:203B4000CF91DF911F910F91FF90EF90DF90CF90BF90AF909F907F906F905F904F903F9001
:203B60002F9008952F923F924F925F926F927F928F929F92AF92BF92CF92DF92EF92FF92AB
:203B80000F931F93DF93CF93CDB7DEB7CF58D0400FB6F894DEBF0FBECDBF8C013B016A0132
:203BA00084E090E0C80ED91EF8017196C757DF4FF983E883C958D040C8010496CA57DF4F4E
:203BC00099838883C658D040C857DF4F1882C858D040B6E6EB2EF12CEC0EFD1EF7013B96C9
:203BE000C557DF4FF983E883CB58D040A8E88A2EA2E09A2E800E911EFAE8AF2EF2E0BF2E14
:203C0000A00EB11EEEE02E2E312C2C0E3D1E77E4472E512C4C0E5D1EC2010496C357DF4F44
:203C200099838883CD58D040E3EEF0E09491C157DF4F9883CF58D0404FC1F7018385482F43
:203C400050E0BA01687170706031710509F052C1F401208131812130310509F44BC1223083
:203C6000310509F447C1F701DE0111969081903239F08E2F8E19883011F48EE28D939D93AE
:203C80003196C557DF4F88819981CB58D040E817F90761F71C921E86F3018081882329F457
:203CA000C10160E071E00E94D210C101B3010E94D210C101BE016F5F7F4F0E94D210C101D0
:203CC00060E071E00E94D2101CA61FA61BA61AA683E493E099A788A7CE018C96B601AE0127
:203CE0004F5F5F4F21E00E94586E882309F03FC0F40180819181892BD1F5C157DF4F98817B
:203D0000CF58D040E3EEF0E008C08091C00085FFFCCF9093C600319694919923B1F7E2E0E8
:203D2000F1E007C08091C00085FFFCCF31969093C60090819923B1F78091C00085FFFCCF86
:203D4000FAE0F093C600FE01319607C08091C00085FFFCCF31969093C60090819923B1F76E
:203D60008091C00085FFFCCF8AE08093C600C357DF4FA881B981CD58D040FE01BC968BE143
:203D800001900D928150E1F78AA59BA5F2019383828383E493E091838083C801B101A201BE
:203DA0000E94B21DC2010E940C14CE0188960E940C1492C0953E09F48FC09E3209F48CC0D4
:203DC0009F3509F489C0F8019189992331F09E3209F482C09F3509F47FC043FD7DC080E0DD
:203DE0006031710509F481E0F80184A7882349F4F7018085873409F06FC081858E3709F4AA
:203E00006BC0CA57DF4FA881B981C658D040F7018081803241F08E2F8E19883011F48EE22A
:203E20008D9380818D933196C557DF4F88819981CB58D040E817F90759F71C92F4018081E7
:203E40009181009729F5F30107C08091C00085FFFCCF31969093C60090819923B1F7CA577A
:203E6000DF4FE881F981C658D04007C08091C00085FFFCCF31969093C60090819923B1F7F7
:203E80008091C00085FFFCCFFAE0F093C60024C08130910539F4F5018081918101969183D3
:203EA00080831AC00297C1F4C857DF4FF881C858D0402F2F30E0F5018081918128173907EB
:203EC000F1F0C857DF4FF881C858D040FF5FC857DF4FF883C858D040C601B701C757DF4FEA
:203EE00048815981C958D0400E94676918160CF4A4CE05C0F7019081992309F05BCFC15717
:203F0000DF4F0FB6F894DEBF0FBECDBFCF91DF911F910F91FF90EF90DF90CF90BF90AF90A2
:203F20009F908F907F906F905F904F903F902F900895EF92FF920F931F93DF93CF93CDB76E
:203F4000DEB76F970FB6F894DEBF0FBECDBF7C018C01025B1F4F805B9F4FF80191838083D1
:203F600028E832E0E20EF31E21E030E0F701219331937F011182108226E73DEFE20EF31EBE
:203F8000049640E050E060E070E00E943266F80120813181DE011596F90134968BE10190D6
:203FA0000D928150E1F7F901828193819C838B8383E493E09A838983C70165E171E08E018A
:203FC0000F5F1F4FA8010E94B21DC8010E940C14F701E657FD4F808191816F960FB6F89476
:203FE000DEBF0FBECDBFCF91DF911F910F91FF90EF900895EF92FF920F931F93DF93CF93C6
:20400000CDB7DEB76F970FB6F894DEBF0FBECDBF7C018C01025B1F4F805B9F4FF80191838F
:20402000808328E832E0E20EF31E22E030E0F7013183208328E73DEFE20EF31EF701E65788
:20404000FD4F60831182049640E050E060E070E00E943266F80120813181DE011596F9011A
:2040600034968BE101900D928150E1F7F901828193819C838B8383E493E09A838983C70128
:2040800065E171E08E010F5F1F4FA8010E94B21DC8010E940C146F960FB6F894DEBF0FBEB9
:2040A000CDBFCF91DF911F910F91FF90EF900895EF92FF920F931F93DF93CF93CDB7DEB756
:2040C0006F970FB6F894DEBF0FBECDBF7C0188E892E0E80EF91EF7011182108288E79DEF0F
:2040E000E80EF91E87010D5C1F4FC80140E050E060E070E00E943266DE011596F8018BE182
:2041000001900D928150E1F7F70181A992A99C838B8383E493E09A838983C70165E171E0DA
:204120008E010F5F1F4FA8010E94B21DC8010E940C146F960FB6F894DEBF0FBECDBFCF91C3
:20414000DF911F910F91FF90EF9008950F931F93CF93DF93DC01D3961C92D397D6961C9254
:20416000D697D2961C921E92D19783E493E0D0969C938E939F97AC5ABF4F1C9213961C92C5
:20418000A755B040FD01E05BFF4FAE5ABF4F11961C921E92A255B04091838083ED01C1598B
:2041A000DF4FFE0120E030E0482F148217821382128240839183215E3F4F7F9681E0263340
:2041C000380799F7A855BE4F89E18C9313961C9258961C921B961C9213961C92A15DB140E5
:2041E000FD01E653FE4FA453BE4F11961C921E9240839183A155BF4F1D921D921D921C929C
:20420000139718961D921D921D921C921397A358B24012961C92129713961C9213971C9246
:2042200011961C9211978D0101581D4FF8011082118212821382AB55BE4F11961C921E92D5
:20424000AC5BBF4F1C92FE01C90111920197E9F7A256BF4F81E08C93A758B2409E961C925E
:204260001E929D970E9481C668577C4E8F4F9F4FF8016083718382839383DF91CF911F91B1
:204280000F910895DF93CF93CDB7DEB7E0970FB6F894DEBF0FBECDBFDE011196E3EFF2E00C
:2042A00080E101900D928150E1F7DE015196E3EEF2E080E101900D928150E1F7DE0191961B
:2042C000E3EDF2E080E101900D928150E1F789819A81AB81BC818093DD089093DE08A09340
:2042E000DF08B093E00889899A89AB89BC898093CD089093CE08A093CF08B093D00889A1CE
:204300009AA1ABA1BCA18093ED089093EE08A093EF08B093F0088D819E81AF81B885809386
:20432000E1089093E208A093E308B093E4088D899E89AF89B88D8093D1089093D208A09364
:20434000D308B093D4088DA19EA1AFA1B8A58093F1089093F208A093F308B093F4088985A5
:204360009A85AB85BC858093E5089093E608A093E708B093E808898D9A8DAB8DBC8D809376
:20438000D5089093D608A093D708B093D80889A59AA5ABA5BCA58093F5089093F608A09388
:2043A000F708B093F8088D859E85AF85B8898093E9089093EA08A093EB08B093EC088D8D81
:2043C0009E8DAF8DB8A18093D9089093DA08A093DB08B093DC088DA59EA5AFA5B8A98093AA
:2043E000F9089093FA08A093FB08B093FC080E94435180E090E0AFEAB4E4809301099093A3
:204400000209A0930309B093040980E090E4ACE9B5E48093050990930609A0930709B09327
:20442000080920E030E040E050E02093FD083093FE084093FF085093000980E29EE4A0E060
:20444000B0E08093C9089093CA08A093CB08B093CC0820931509309316094093170950934D
:20446000180980E090E0A8E5B1E48093090990930A09A0930B09B0930C098AE999E9A9E9A8
:20448000BEE380930D0990930E09A0930F09B093100980E090E0A0EAB0E480931109909333
:2044A0001209A0931309B09314092093D9063093DA064093DB065093DC062093D506309333
:2044C000D6064093D7065093D8062093D1063093D2064093D3065093D40684EB90E09093FF
:2044E000CD108093CC1086E490E09093CF108093CE102FEF30E03093D1102093D01080EF4F
:2045000090E09093D3108093D21084E690E09093D5108093D4103093D7102093D61088E4A8
:2045200091EEAEE9B1E48093A5029093A602A093A702B093A80260E070E080E89FE30E9466
:20454000FD7C6093A9027093AA028093AB029093AC0269E27CED85EC92E40E940B7D60934C
:20456000AD027093AE028093AF029093B0020E941B7C80E090E0A0E8BFE38093B102909324
:20458000B202A093B302B093B402E4EDF2E0949108C08091C00085FFFCCF9093C600319626
:2045A00094919923B1F7EAEDF2E0949108C08091C00085FFFCCF9093C6003196949199232B
:2045C000B1F78091C00085FFFCCF8AE08093C600E0960FB6F894DEBF0FBECDBFCF91DF9143
:2045E0000895CF93DF93C4EDD2E0FE01949108C08091C00085FFFCCF9093C6003196949106
:204600009923B1F7E4EBF4E0949108C08091C00085FFFCCF9093C600319694919923B1F74D
:204620008091C00085FFFCCF8AE08093C600FE019491E4EDF2E008C08091C00085FFFCCF68
:204640009093C600319694919923B1F74091DD085091DE086091DF087091E0088CEA94E0F9
:204660000E948A2D4091E1085091E2086091E3087091E40889EA94E00E948A2D4091E50895
:204680005091E6086091E7087091E80886EA94E00E948A2D4091E9085091EA086091EB08C4
:2046A0007091EC0883EA94E00E948A2DE6E1F1E007C08091C00085FFFCCF31969093C6009C
:2046C00090819923B1F78091C00085FFFCCF8AE08093C600FE019491E4EDF2E008C0809162
:2046E000C00085FFFCCF9093C600319694919923B1F7E9E8F4E0949108C08091C00085FF8B
:20470000FCCF9093C600319694919923B1F78091C00085FFFCCF8AE08093C600FE0194910E
:20472000E4EDF2E008C08091C00085FFFCCF9093C600319694919923B1F74091CD0850912E
:20474000CE086091CF087091D00880E894E00E948A2D4091D1085091D2086091D30870917B
:20476000D4088DE794E00E948A2D4091D5085091D6086091D7087091D8088AE794E00E9477
:204780008A2D4091D9085091DA086091DB087091DC0887E794E00E948A2DE6E1F1E007C09A
:2047A0008091C00085FFFCCF31969093C60090819923B1F78091C00085FFFCCF8AE0809317
:2047C000C600FE019491E4EDF2E008C08091C00085FFFCCF9093C600319694919923B1F72B
:2047E000E9E5F4E0949108C08091C00085FFFCCF9093C600319694919923B1F78091C00000
:2048000085FFFCCF8AE08093C600FE019491E4EDF2E008C08091C00085FFFCCF9093C6006E
:20482000319694919923B1F74091ED085091EE086091EF087091F00880E594E00E949E2D64
:204840004091F1085091F2086091F3087091F4088DE494E00E949E2D4091F5085091F608CB
:204860006091F7087091F8088AE494E00E949E2D4091F9085091FA086091FB087091FC084A
:2048800087E494E00E949E2DE6E1F1E007C08091C00085FFFCCF31969093C60090819923D0
:2048A000B1F78091C00085FFFCCF8AE08093C600FE019491E4EDF2E008C08091C00085FF09
:2048C000FCCF9093C600319694919923B1F7E2E1F4E0949108C08091C00085FFFCCF90930D
:2048E000C600319694919923B1F78091C00085FFFCCF8AE08093C600FE019491E4EDF2E078
:2049000008C08091C00085FFFCCF9093C600319694919923B1F740910109509102096091BE
:2049200003097091040989E094E00E948A2D4091050950910609609107097091080986E0DF
:2049400094E00E948A2DE6E1F1E007C08091C00085FFFCCF31969093C60090819923B1F7E6
:204960008091C00085FFFCCF8AE08093C600FE019491E4EDF2E008C08091C00085FFFCCF25
:204980009093C600319694919923B1F7E3E5F3E0949108C08091C00085FFFCCF9093C6004D
:2049A000319694919923B1F78091C00085FFFCCF8AE08093C600FE019491E4EDF2E008C0B5
:2049C0008091C00085FFFCCF9093C600319694919923B1F74091FD085091FE086091FF08C9
:2049E000709100098AE493E00E948A2D4091150950911609609117097091180987E493E073
:204A00000E948A2D4091C9085091CA086091CB087091CC0884E493E00E949E2D4091090924
:204A200050910A0960910B0970910C0981E493E00E948A2D40910D0950910E0960910F094E
:204A4000709110098EE393E00E948A2D409111095091120960911309709114098BE393E00C
:204A60000E948A2DE6E1F1E007C08091C00085FFFCCF31969093C60090819923B1F7809128
:204A8000C00085FFFCCF8AE08093C600FE019491E4EDF2E008C08091C00085FFFCCF9093F2
:204AA000C600319694919923B1F7E9E2F3E0949108C08091C00085FFFCCF9093C600319685
:204AC00094919923B1F78091C00085FFFCCF8AE08093C600FE019491E4EDF2E008C080914A
:204AE000C00085FFFCCF9093C600319694919923B1F74091D1065091D2066091D306709142
:204B0000D40680E293E00E948A2D4091D5065091D6066091D7067091D8068DE193E00E94F4
:204B20008A2D4091D9065091DA066091DB067091DC068AE193E00E948A2DE6E1F1E007C002
:204B40008091C00085FFFCCF31969093C60090819923B1F78091C00085FFFCCF8AE0809373
:204B6000C600FE019491E4EDF2E008C08091C00085FFFCCF9093C600319694919923B1F787
:204B8000ECE0F3E0949108C08091C00085FFFCCF9093C600319694919923B1F78091C0005F
:204BA00085FFFCCF8AE08093C600FE019491E4EDF2E008C08091C00085FFFCCF9093C600CB
:204BC000319694919923B1F74091A5025091A6026091A7027091A80282E093E00E948A2D11
:204BE0006091A9027091AA028091AB029091AC020E94047DAB01BC018FEF92E00E948A2D0A
:204C00006091AD027091AE028091AF029091B0020E94127DAB01BC018CEF92E00E948A2DCE
:204C2000E6E1F1E007C08091C00085FFFCCF31969093C60090819923B1F78091C00085FF7B
:204C4000FCCF8AE08093C600DF91CF9108951F920F920FB60F920BB60F9211242F933F93F6
:204C60004F938F939F93EF93FF934091C600E0912804F091290431969F012F773070319793
:204C800080912A0490912B042817390739F0E855FC4F40833093290420932804FF91EF91B3
:204CA0009F918F914F913F912F910F900BBE0F900FBE0F901F9018959A01AB01203081EE5F
:204CC000380780E0480780E0580749F182E08093C00060E079E08DE390E00E94ECCD215073
:204CE000304040405040CA01B90122E030E040E050E00E94ECCD3093C5002093C4008091E2
:204D0000C10080618093C1008091C10088608093C1008091C10080688093C10008951092C2
:204D2000C00020E130E0E7CF20912A0430912B0480912804909129048217930719F42FEF34
:204D40003FEF0EC0F901E855FC4F80812F5F3F4F2F77307030932B0420932A04282F30E038
:204D6000C901089580912A0490912B049093290480932804089508952F923F924F925F9210
:204D80006F927F928F929F92AF92BF92CF92DF92EF92FF920F931F93DF93CF93CDB7DEB7F8
:204DA000A0970FB6F894DEBF0FBECDBF1C016A017B01411551056105710549F440E350E059
:204DC00060E070E020E030E00E94752756C0882499245401422E55246624772401E010E042
:204DE0000C0F1D1F080D191DC701B601A30192010E94CACDF80160830894811C911CA11CA3
:204E0000B11CC701B601A30192010E94CACDC901DA016C017D01C114D104E104F104F1F6DB
:204E200081E0E82EF12CEC0EFD1EE80CF91C3E010894611C711CD501C4010197A109B10944
:204E40006C01C818D90816C0F601EE0DFF1D40814A3010F4405D01C0495C552747FD509559
:204E6000652F752FC10120E030E00E9475270894E108F1086E147F0439F7A0960FB6F894B0
:204E8000DEBF0FBECDBFCF91DF911F910F91FF90EF90DF90CF90BF90AF909F908F907F9035
:204EA0006F905F904F903F902F9008952115310539F48091C00085FFFCCF4093C60008950B
:204EC0000E94BC260895EF92FF920F931F939A01E62EFF2400E010E0B801A7010E94562729
:204EE0001F910F91FF90EF900895EF92FF920F931F93CF93DF93EC017A018B01211531051D
:204F000039F48091C00085FFFCCFE092C6001BC02A303105B1F477FF10C04DE250E060E017
:204F200070E020E030E00E94752710950095F094E094E11CF11C011D111DCE01B801A7011B
:204F40002AE00E94BC26DF91CF911F910F91FF90EF900895EF92FF920F931F937B019A017B
:204F60000027F7FC0095102FB801A7010E9475271F910F91FF90EF9008950F931F938C01C8
:204F80004DE050E060E070E020E030E00E947527C8014AE050E060E070E020E030E00E9471
:204FA00075271F910F910895CF92DF92EF92FF920F931F938C019A016B01EE24FF24B701AF
:204FC000A6010E945627C8010E94BD271F910F91FF90EF90DF90CF9008959F92AF92BF9230
:204FE000CF92DF92EF92FF920F931F93CF93DF93EC017A018B01922ECB01BA0120E030E05A
:2050000040E050E00E94D2C988236CF4CE014DE250E060E070E020E030E00E94752717FBDA
:20502000109517F91095AA2420E030E040E05FE30BC0CA01B90120E030E040E251E40E947D
:20504000D9C99B01AC01A394A91498F3C801B7010E94F9C87B018C010E9446CA5B016C017E
:205060000E9472CA9B01AC01C801B7010E94F8C87B018C01CE01B601A5012AE030E00E9435
:2050800056279920A1F1E7E1F1E007C08091C00085FFFCCF31969093C60090819923B1F7A3
:2050A00026C0C801B70120E030E040E251E40E94B2CC7B018C010E9441CA5B016C01CC2493
:2050C000B7FCC094DC2CCE01B601A5012AE030E00E947527C601B5010E9474CA9B01AC0197
:2050E000C801B7010E94F8C87B018C019A949920C1F6DF91CF911F910F91FF90EF90DF9089
:20510000CF90BF90AF909F9008950E94ED270895EF92FF920F931F93CF93DF93EC01E090EC
:20512000DD06F090DE060091DF061091E006688179818A819B81A80197010E94D2C98823F8
:2051400024F4E882F9820A831B83E090E106F090E2060091E3061091E4066C817D818E8169
:205160009F81A80197010E94D2C9882324F4EC82FD820E831F83E090E506F090E606009156
:20518000E7061091E806688579858A859B85A80197010E94D2C9882324F4E886F9860A87BA
:2051A0001B87E0907702F09078020091790210917A02688179818A819B81A80197010E9454
:2051C000E0CB181624F4E882F9820A831B83E0907B02F0907C0200917D0210917E026C81C5
:2051E0007D818E819F81A80197010E94E0CB181624F4EC82FD820E831F83E0907F02F0901D
:2052000080020091810210918202688579858A859B85A80197010E94E0CB181624F4E88677
:20522000F9860A871B87DF91CF911F910F91FF90EF9008958091FC0608950F931F93CF938B
:20524000DF938130910549F46F5F7F4F09F046C08DE294E00E94A62041C0892B09F03EC0C6
:205260006F5F7F4FD9F583E493E09093F8058093F7058091FE05882321F08BEF95E00E945A
:205280004A67C3EBD5E003E413E005C06F9784E0CD37D80751F0198308838F818823B1F347
:2052A000CE0104960E944A67F1CF83E493E0998388838F81882321F0CE0104960E944A67E9
:2052C00083E493E090935D0480935C0480916304882321F080E694E00E944A67DF91CF91CC
:2052E0001F910F91089580E090E06FEF7FEF0E941D29089581E090E06FEF7FEF0E941D291B
:2053000008950E94EE7C8091FC06882309F03AC081E08093FC068091FF0690910007A0914E
:205320000107B09102078093030790930407A0930507B0930607EAECF4E0949108C0809199
:20534000C00085FFFCCF9093C600319694919923B1F7EBEDF4E0949108C08091C00085FF17
:20536000FCCF9093C600319694919923B1F78091C00085FFFCCF8AE08093C60081ED94E0E4
:205380000E94A5BB0895F8940E94EE7C5E9A1092E9065E9A1092EA06159A1092EB065E9A89
:2053A000EAECF4E0949108C08091C00085FFFCCF9093C600319694919923B1F7EAE5F5E059
:2053C000949108C08091C00085FFFCCF9093C600319694919923B1F78091C00085FFFCCF67
:2053E0008AE08093C60081E595E00E94B4BBFFCF0E9481C66093090770930A0780930B078B
:2054000090930C07E0913207F0913307EC5CF84F80818823A9F4E9E7F5E0949108C0809176
:20542000C00085FFFCCF9093C600319694919923B1F78091C00085FFFCCF8AE08093C600C1
:2054400008950E9481C66093090770930A0780930B0790930C0708956F927F928F929F9253
:20546000AF92BF92CF92DF92EF92FF920F931F93F82E6091110770911207809113079091CD
:205480001407209115073091160740911707509118070E94EDCB3B014C0100D000D000D004
:2054A0000DB71EB70F5F1F4F60916D0270916E02882777FD8095982F0E9474CA209189028B
:2054C00030918A0240918B0250918C020E94B2CC20E030E040E752E40E94D9C920E030E0D1
:2054E00048EC52E40E94D9C95B016C01F8016082718282829382F4828091F006858381EC5C
:2055000096E06DE177E041E157E020E001E032E0E32E0E94964C80911D0790911E07A091E3
:205520001F07B09120078093C1069093C206A093C306B093C4068091210790912207A0915B
:205540002307B09124078093C5069093C606A093C706B093C8068091250790912607A0911B
:205560002707B09128078093C9069093CA06A093CB06B093CC068091290790912A07A091DB
:205580002B07B0912C078093CD069093CE06A093CF06B093D0068DB79EB706960FB6F894E1
:2055A0009EBF0FBE8DBF0E9481C66093090770930A0780930B0790930C071F910F91FF903B
:2055C000EF90DF90CF90BF90AF909F908F907F906F900895CF92DF92EF92FF920F931F93BF
:2055E0008DE197E00E9488280E9481C66093090770930A0780930B0790930C076091C10661
:205600007091C2068091C3069091C40620911D0730911E0740911F07509120070E94D2C905
:20562000882309F07AC06091C5067091C6068091C7069091C80620912107309122074091A2
:205640002307509124070E94D2C9882309F065C06091890270918A0280918B0290918C02B8
:2056600020E030E040E752E40E94D9C97B018C018DE197E061E277E045E257E029E237E071
:20568000E0EFCE2EE6E0DE2E0E949C5680911D0790911E07A0911F07B09120078093C106C5
:2056A0009093C206A093C306B093C4068091210790912207A0912307B09124078093C506CE
:2056C0009093C606A093C706B093C8068091250790912607A0912707B09128078093C9068E
:2056E0009093CA06A093CB06B093CC068091290790912A07A0912B07B0912C078093CD064E
:205700009093CE06A093CF06B093D0061F910F91FF90EF90DF90CF90089560916D02709147
:205720006E02882777FD8095982F0E9474CA2091890230918A0240918B0250918C020E9422
:20574000B2CC20E030E040E752E40E94D9C920E030E048EC52E488CF8CE294E00E94B226ED
:20576000ECE7F5E0949108C08091C00085FFFCCF9093C600319694919923B1F74091FF0665
:205780005091000760910107709102074F5F5F4F6F4F7F4F8CE294E02AE030E00E947527FC
:2057A0008091C00085FFFCCF8AE08093C6000E94F82908952F923F924F925F926F927F92B0
:2057C0008F929F92AF92BF92CF92DF92EF92FF920F931F93DF93CF93CDB7DEB728970FB63C
:2057E000F894DEBF0FBECDBF98878F838330910508F056C1FC01E654F84FD4903C01660C0D
:20580000771C660C771C93012F53394F3A83298380E090E0A0E0B0E0F90180839183A283D3
:20582000B38381EC96E065EC76E049EC56E02DEC36E00E948C51F301E354F84FE590F59023
:20584000059114916D2D772767FD7095882777FD8095982F0E9474CA1B012C019301235E2F
:20586000384F3C832B83C801B70120E030E040EC5FE30E94B2CCA20191010E94B2CCAB8194
:20588000BC816D937D938D939C931397F301E35AFD4FFE83ED836081718182819381609377
:2058A000890270938A0280938B0290938C0220E030E040E752E40E94D9C97B018C018DE155
:2058C00097E061E277E045E257E029E237E0A0EFCA2EA6E0DA2E0E949C560E940E7580E009
:2058E00090E0A0E0B0E0E981FA8180839183A283B38381EC96E065EC76E049EC56E02DECC3
:2059000036E00E948C51F301E753F84F85909590A590B490C501B4019058A20191010E9490
:20592000B2CCAB81BC816D937D938D939C9313976091890270918A0280918B0290918C0221
:2059400020E030E040E752E40E94D9C97B018C018DE197E061E277E045E257E029E237E08E
:205960000E949C560E940E75C501B401A50194010E94F9C8A20191010E94B2CCEB81FC8117
:205980006083718382839383AD81BE816D917D918D919C9120E030E040E05FE30E94B2CCBF
:2059A0006093890270938A0280938B0290938C0220E030E040E752E40E94D9C97B018C01CF
:2059C0008DE197E061E277E045E257E029E237E00E949C560E940E75F301EB52F84F6591A1
:2059E000759185919491F301EF52F94FA080B180C280D380A60195010E94F9C87B018C015A
:205A0000CB01D801E981FA8180839183A283B383F301EF51F84F6591759185919491FDEDEE
:205A20008F2EF6E09F2E860C971CA60195010E94F9C8D4016D937D938D939C931397F3014F
:205A4000E351F84F6591759185919491E7E7F2E06E0E7F1EA60195010E94F9C8D3016D9367
:205A60007D938D939C931397C701D801EB81FC8180839183A283B38380E090E0A0E0B0E041
:205A80008093890290938A02A0938B02B0938C020E942C74AF81B885A751B94F81E08C93F9
:205AA00028960FB6F894DEBF0FBECDBFCF91DF911F910F91FF90EF90DF90CF90BF90AF9057
:205AC0009F908F907F906F905F904F903F902F900895409132075091330720E630E0B9017C
:205AE000469F9001479F300D569F300D1124682F772767FD7095C901825C984F0E94DD10EA
:205B00009C0190933D0780933C0780E0232B09F081E00895FC01949108C08091C00085FF47
:205B2000FCCF9093C600319694919923B1F78CE294E022E030E00E9485280895FC0194915F
:205B400008C08091C00085FFFCCF9093C600319694919923B1F78CE294E02AE030E00E9486
:205B60005627089580913C0790913D07019660E070E04AE050E00E943C0F089580913C07F3
:205B800090913D07019660E070E00E94DC0D0895CF93DF93EC018091F0068093FE0684E509
:205BA0000E94692D882309F482C00E94BE2D0E9446CA262F6093FE06662309F478C0E4ECAA
:205BC000F4E0949108C08091C00085FFFCCF9093C600319694919923B1F7CD36D105C1F021
:205BE000CE36D10544F4C836D105C1F0C936D10509F04DC010C0CA3DD10539F0CD3DD1057D
:205C000009F045C0E9E1F1E03FC0E0E3F1E031C0E7E4F1E023C0EEE5F1E015C0E5E7F1E0D2
:205C200007C08091C00085FFFCCF31969093C60090819923B1F72BC08091C00085FFFCCF4D
:205C400031969093C60090819923B1F720C08091C00085FFFCCF31969093C60090819923A2
:205C6000B1F715C08091C00085FFFCCF31969093C60090819923B1F70AC08091C00085FF43
:205C8000FCCF31969093C60090819923B1F78CE294E0622F40E050E00E9463278091C00054
:205CA00085FFFCCF8AE08093C60081E001C080E0DF91CF910895AF92BF92CF92DF92EF927E
:205CC000FF920F931F93CF93DF9311ECE12E16E0F12ECDE1D7E000E010E0F801ED5FFC4F25
:205CE00080810E94692D882339F10E94BE2D5B016C01F801E554F94F8081882311F061E0D8
:205D000002C060912D0770E0882777FD8095982F0E9474CAF70120813181428153810E94E9
:205D2000B2CC9B01AC01C601B5010E94F9C8688379838A839B8309C0F70180819181A281B3
:205D4000B38188839983AA83BB830F5F1F4F84E090E0E80EF91E24960430110509F0BDCF37
:205D600086E40E94692D8823E1F00E94BE2D7B018C0160932E0770932F07809330079093A1
:205D8000310720E030E040E050E00E94E0CB181644F4E0928902F0928A0200938B021093EA
:205DA0008C02DF91CF911F910F91FF90EF90DF90CF90BF90AF9008950E945B2E89E40E94F4
:205DC000692D882359F00E94BE2D609311077093120780931307909314070CC080E090E07E
:205DE000A0E0B0E08093110790931207A0931307B09314078AE40E94692D882359F00E9445
:205E0000BE2D60931507709316078093170790931807089580E090E0A0E0B0E08093150749
:205E200090931607A0931707B093180708952F923F924F925F926F927F928F929F92AF92C9
:205E4000BF92CF92DF92EF92FF920F931F93DF93CF93CDB7DEB76E970FB6F894DEBF0FBE0C
:205E6000CDBF30E6A32EB12CEAE2F8E084902AE0722EE0EAF8E094906624639429C22D30E1
:205E800071F02A3321F48091BF08882341F08091C0089091C1088F3591050CF4F5C1E09137
:205EA000C008F091C108309709F41DC3A091C208B091C308AA9D7001AB9DF00CBA9DF00CD6
:205EC0001124EE0DFF1DE25CF84F10828091BF08882309F0D4C11092BF08AC5CB84F1C9228
:205EE0008701025C184FC8016EE470E00E94DD109C01009709F4F7C090933D0780933C07B6
:205F00002F5F3F4F201B310B2E0D3F1DC901825C984F60E070E04AE050E00E943C0F6093FE
:205F2000C4087093C5088093C6089093C708C090FF06D0900007E0900107F0900207A7018D
:205F400096012F5F3F4F4F4F5F4F621773078407950709F470C38091C2089091C3089C0194
:205F60002A9DC0012B9D900D3A9D900D1124825C984F69E479E00E94A210892B09F05BC301
:205F8000EAECF4E0949108C08091C00085FFFCCF9093C600319694919923B1F7E6E1F9E071
:205FA000949108C08091C00085FFFCCF9093C600319694919923B1F78CE294E0B701A6015A
:205FC0002AE030E00E9475278091C00085FFFCCF73C0FE264F5FFC01E40FF11DE25CF84FC1
:205FE000E081EA32B1F730933D0720933C07C901019660E070E00E94DC0D0E9441CA2F2DFA
:2060000030E02617370709F45DC0EAECF4E0949108C08091C00085FFFCCF9093C600319674
:2060200094919923B1F7E7EFF8E0949108C08091C00085FFFCCF9093C6003196949199238B
:20604000B1F74091FF065091000760910107709102078CE294E02AE030E00E94752780918C
:20606000C00085FFFCCF28C0EAECF4E0949108C08091C00085FFFCCF9093C600319694919D
:206080009923B1F7EDECF8E0949108C08091C00085FFFCCF9093C600319694919923B1F7A5
:2060A0008CE294E0B701A6012AE030E00E9475278091C00085FFFCCF8AE08093C6000E9442
:2060C000AC2B4AC08091C4089091C508A091C608B091C7088093FF0690930007A093010788
:2060E000B09302073EC0C8016AE270E00E94DD10009709F436C0EAECF4E0949108C0809130
:20610000C00085FFFCCF9093C600319694919923B1F7E3EAF8E0949108C08091C00085FF50
:20612000FCCF9093C600319694919923B1F74091FF065091000760910107709102078CE22C
:2061400094E02AE030E00E9475278091C00085FFFCCF8AE08093C6001092C1081092C0083B
:2061600089C28091C2089091C3088A9D70018B9DF00C9A9DF00C11248701025C184FC801D3
:2061800067E470E00E94DD109C01009709F44BC090933D0780933C072F5F3F4F201B310B49
:2061A0002E0D3F1DC901825C984F60E070E00E94DC0D0E9441CA64307105A8F58091FC0637
:2061C0008823C9F480912D04882369F5992DE0EAF8E008C08091C00085FFFCCF9093C600D3
:2061E000319694919923B1F78091C00085FFFCCF7092C60018C0982DEAE2F8E008C080914D
:20620000C00085FFFCCF9093C600319694919923B1F78091C00085FFFCCF7092C60080E2EC
:2062200098E00E94A5BB8091C2089091C308FC01EA9DC001EB9D900DFA9D900D1124825C6C
:20624000984F6CE871E00E94E810009711F40E94C3298091C2089091C308019664E070E0FC
:206260000E94B7CD9093C3088093C208809107079091080701969093080780930707109252
:20628000C1081092C00824C02B3311F46092BF088091BF088823E1F42091C0083091C10870
:2062A0008091C2089091C3088A9DF0018B9DF00D9A9DF00D1124E20FF31FE25CF84F8091D8
:2062C000BE0880832F5F3F4F3093C1082093C008809128049091290420912A0430912B0478
:2062E000821B930B8F779070892B09F4BEC1809107079091080704970CF0B7C18CE294E0ED
:206300000E949426282F8093BE088A3009F0B7CDC6CD8091C0089091C108892B09F0AAC14C
:206320008091070790910807892B09F032C11092C8082FC14D3099F0433211F04A3321F4FE
:206340008091BF08882359F08091C0089091C1088F35910524F42F5F3F4F09F0F5C02091C1
:20636000B0063091B1064091B2065091B3068091A8069091A906A091AA06B091AB0628172B
:2063800039074A075B0708F4A1C0932DEDE0F8E008C08091C00085FFFCCF9093C6003196B0
:2063A00094919923B1F78091C00085FFFCCF2092C6000E9481C66093F8067093F9068093CD
:2063C000FA069093FB062091F4063091F5064091F6065091F706621B730B840B950B28EE47
:2063E00033E040E050E00E94CACDF22EE32ED42EC52E2DB73EB7285030400FB6F8943EBFCC
:206400000FBE2DBF0DB71EB70F5F1F4FEDB7FEB7B282A182F801538242826F2D7E2D842F12
:20642000952F20E13EE040E050E00E94CACDF801358324836F2D7E2D8D2D9C2D2CE330E0AF
:2064400040E050E00E94CACDCA01B9012CE330E040E050E00E94CACDF801778366830E9408
:206460001511982DE4ECF4E02DB73EB7285F3F4F0FB6F8943EBF0FBE2DBF08C08091C000FF
:2064800085FFFCCF9093C600319694919923B1F7F50107C08091C00085FFFCCF31969093AD
:2064A000C60090819923B1F78091C00085FFFCCF2092C600C5010E94C8BB8DE294E00E9499
:2064C000211B8DE294E061E00E94891C8091BE08833211F49092C8082091C0083091C1088F
:2064E0002115310519F41092BF08C4C08091C2089091C308869DF001879DF00D969DF00D0A
:206500001124E20FF31FE25CF84F1082FC01EC5CF84F908220910707309108072F5F3F4FE3
:206520003093080720930707019664E070E00E94B7CD9093C3088093C2081092BF081092A1
:20654000C1081092C0083AC04B3311F49092BF088091BF08882391F52091C0083091C10896
:206560008091C2089091C308869DF001879DF00D969DF00D1124E20FF31FE25CF84F809121
:20658000BE0880832F5F3F4F3093C1082093C00815C090E6692E712C99249394EDE0F8E007
:2065A00034908AE0282E5E010894A11CB11C09EF402E07E0502EE4ECF4E084902091B006E8
:2065C0003091B1064091B2065091B3068091A8069091A906A091AA06B091AB06281739073F
:2065E0004A075B0708F046C0809107079091080704970CF03FC08091C8088823D9F580919A
:20660000030690910406A0910506B09106068093B0069093B106A093B206B093B3068BEFB9
:2066200095E00E94F7699C01482F8093BE088A3009F080CE94CE8091C2089091C3088A9DA5
:2066400080018B9D100D9A9D100D1124C801825C984F6AE270E00E94DD109C01009709F401
:2066600003CDFF2440E0C801B6CC80912F04882309F04FCE6E960FB6F894DEBF0FBECDBF6C
:20668000CF91DF911F910F91FF90EF90DF90CF90BF90AF909F908F907F906F905F904F9046
:2066A0003F902F900895EF92FF920F931F938091070790910807039714F40E94172F0E94CE
:2066C00081C6E0900D07F0900E0700910F07109110072091090730910A0740910B075091A4
:2066E0000C07621B730B840B950BE616F7060807190738F4E114F1040105110511F00E9460
:20670000C3298091850290918602A0918702B09188020097A105B10559F10E9481C62091F0
:20672000090730910A0740910B0750910C07621B730B840B950B2091850230918602409124
:20674000870250918802261737074807590780F490910A0E80910B0E981751F45E9A1092B6
:20676000E9065E9A1092EA06159A1092EB065E9A0E94B3531F910F91FF90EF9008952F9202
:206780003F924F925F926F927F928F929F92AF92BF92CF92DF92EF92FF920F931F93DF93B6
:2067A000CF93CDB7DEB7EE970FB6F894DEBF0FBECDBF87E40E94692D882309F42FC20E94B4
:2067C000BE2D0E9441CA6430710509F447C06530710554F46230710551F1633071058CF5EC
:2067E0007723CCF40C942A496A35710509F4C1C16B35710534F46C31710511F00C942A4933
:2068000075C06B35710509F4B8C16C35710511F00C942A49B7C18091FC06882311F00C94B5
:206820002A490E945B2E0E94EA2A0C9451498091FC06882311F00C942A490E94DC2E81E0EB
:2068400009C08091FC06882311F00C942A490E94DC2E80E00E942C2A0C94514981EB97E07C
:206860000E94A5BB80E50E94692D882321F4EE24FF24870106C00E94BE2D0E9446CA7B017B
:206880008C0183E50E94692D882361F00E94BE2D20E030E04AE754E40E94B2CC0E9446CAF7
:2068A0007B018C010E940E750E9481C65B016C01AE0CBF1CC01ED11E0E9481C660930907AA
:2068C00070930A0780930B0790930C0706C00E94DA800E9453330E94D7BB0E9481C66A15C3
:2068E0007B058C059D0598F30C942A498091890290918A02A0918B02B0918C02809338071F
:2069000090933907A0933A07B0933B0780916D0290916E029093C0068093BF0684E690E06F
:2069200090936E0280936D020E9481C66093090770930A0780930B0790930C0781E00E94E4
